:100000000C94B5000C9492020C947B020C94D200D8
:100010000C94D2000C94D2000C9427020C94D200C1
:100020000C94D2000C94D2000C94D2000C941605BF
:100030000C94D2000C94D2000C94D2000C94D200F8
:100040000C9485050C94D2000C94C7030C94FD030A
:100050000C94D2000C94F8000C94D2000C94D200B2
:100060000C94D2000C94D2006E616E00696E660032
:1000700000407A10F35A00A0724E18090010A5D45F
:10008000E80000E87648170000E40B54020000CABC
:100090009A3B000000E1F505000080969800000002
:1000A00040420F000000A086010000001027000061
:1000B0000000E803000000006400000000000A00E7
:1000C000000000000100000000002C76D888DC67EA
:1000D0004F0823DFC1DFAE59E1B1B796E5E3E45342
:1000E000C63AE651997696E8E6C28426EB898C9B5F
:1000F00062ED407C6FFCEFBC9C9F40F2BAA56FA5FF
:10010000F490055A2AF75C936B6CF9676DC11BFC80
:10011000E0E40D47FEF520E6B500D0ED902E03009B
:10012000943577050080841E080000204E0A0000E8
:1001300000C80C333333330F986E12831141EF8DA7
:100140002114893BE65516CFFEE6DB18D1844B38E7
:100150001BF77C1D901DA4BBE424203284725E2218
:100160008100C9F124ECA1E53D2711241FBECFEF8A
:10017000D8E0DEBFCDBF11E0A0E0B1E0EAECFAE1EB
:1001800002C005900D92A63EB107D9F722E0A6EE77
:10019000B1E001C01D92AD39B207E1F70E94D4026F
:1001A0000C94630D0C940000ECE7F0E080838081F8
:1001B0008064808380818F7D8083EAE7F0E08081A6
:1001C0008660808380818E7F808380818068808349
:1001D000808180648083808186FDFDCF20917800BE
:1001E0008091790090E0982F8827820F911D0895C3
:1001F0001F920F920FB60F9211248F938091790066
:100200008093E6018F910F900FBE0F901F9018956D
:100210006F927F928F929F92AF92BF92DF92EF92F6
:100220000F931F93CF93DF9300D0CDB7DEB75298D3
:100230002EE703C0215009F4B7C035E03A95F1F735
:1002400000004A9BF7CF5A98529AEFE9FFE03197A6
:10025000F1F700C0000052985A9A2AE103C02150D9
:1002600009F4A4C0F5E0FA95F1F700004A99F7CF38
:1002700023E303C0215009F49BC035E03A95F1F720
:1002800000004A9BF7CF23E303C0215009F492C03A
:10029000E5E0EA95F1F700004A99F7CF00E0D12CAC
:1002A00020E030E040E050E010E0E12C0F2EF7E2DB
:1002B0008F2E912CF02D61E070E0AFE1B0E00F2EB9
:1002C000FFE06F2E712CF02D04C0143210F074C0BA
:1002D0001E2D1F5FF5E0FA95F1F700004A9BF5CF60
:1002E0001E2D03C0133309F469C01F5FE5E0EA95D2
:1002F000F1F700004A99F6CF153180F1003170F422
:100300005301A01AB108BA82A9825B01098002C018
:10031000AA0CBB1C0A94E2F74A295B2910EF100FC4
:10032000103170F4FD01E01BF109FA83E9835B01F0
:10033000098002C0AA0CBB1C0A94E2F72A293B29B7
:1003400010EE100F183050F45401A01AB108FB0140
:1003500002C0EE0FFF1FAA94E2F7DE2A0F5F0832F9
:1003600008F4B6CFED2DF0E0A52FBB27A40FB11DEB
:10037000632F77276A0F7B1F620F711D7727E617A0
:10038000F707F1F4332344F43F7731952195310990
:10039000FC013183208303C0FC0131832083FC01F5
:1003A0005383428380E00DC081E00BC082E009C02E
:1003B00083E007C083E005C084E003C085E001C09E
:1003C00086E00F900F90DF91CF911F910F91EF90EA
:1003D000DF90BF90AF909F908F907F906F90089527
:1003E000E4E6F0E08081806C808308952FE78AE165
:1003F00096E0215080409040E1F700C00000F89462
:1004000083B7817F846083BF83B7816083BF789423
:100410008895F89483B78E7F83BF8FEB9DE5019716
:10042000F1F700C0000078940895F89429E288E17B
:1004300090E00FB6F894A895809360000FBE2093CB
:100440006000E0E6F0E080818065808308951F927F
:100450000F920FB60F9211242F933F934F935F93F8
:100460006F937F938F939F93AF93BF93EF93FF937C
:10047000F894E0E6F0E080818065808380818F776A
:10048000808381E08093060280910001843048F4EB
:100490008F5F809300010E94F601809100018430FB
:1004A00018F081E0809300017894FF91EF91BF9163
:1004B000AF919F918F917F916F915F914F913F91FC
:1004C0002F910F900FBE0F901F901895109205025C
:1004D0004B9B03C081E0809305028091050290E070
:1004E0000895F894E9E6F0E080818C6080838DB314
:1004F00083608DBB08951F920F920FB60F92112447
:100500008F93F89483B78E7F83BF81E08093050239
:1005100080930402E99878948F910F900FBE0F900A
:100520001F9018951F920F920FB60F9211240F90E3
:100530000FBE0F901F901895CF93DF938091040208
:10054000882379F181E08093E7011F928F9389EAF4
:1005500091E09F938F93C8EED1E0DF93CF930E94F9
:10056000E30CCE010E94B90309900020E9F721971E
:10057000BE01685E714088EE91E00E9455041092C1
:1005800004029FE729EA83E0915020408040E1F790
:1005900000C00000E99A0F900F900F900F900F90FD
:1005A0000F90DF91CF910895CF93DF9300D000D0CB
:1005B000CDB7DEB753985B980E9415020E94F001F8
:1005C0000E9424066AEF70E080E090E00E94FA0545
:1005D0008CED95E00E9429040E94C20380EB91E01B
:1005E0000E94B9030E9471020F2EF0ECEF2EF1E091
:1005F000FF2EF02D08EE11E08091E701811157C028
:10060000F894CE0101960E940801789480E00E943F
:10061000D400D82EC92E0E946602CF92DF926B8141
:100620007C8180E090E00E94FE0620E030E040E225
:1006300051E40E9496069F938F937F936F936981F5
:100640007A81882777FD8095982F0E94000720E007
:1006500030E040E251E40E94960626E636E646EE99
:100660005FE30E948C0720E030E040E052E40E940B
:1006700032069F938F937F936F93FF92EF921F9316
:100680000F930E94E30CC8010E94B903F801019086
:100690000020E9F73197BF01685E7140C8010E94F0
:1006A00055040FB6F894DEBF0FBECDBF02C0109246
:1006B000E701A8950E94F6010E949C029DCF4091FF
:1006C0004B0250E04F5F5F4F4F73552720914A0216
:1006D00030E042175307D1F3FA01E45BFD4F80830A
:1006E00040934B02E1ECF0E08081806280830895CA
:1006F0004091090250E04F5F5F4F4F7355272091A3
:10070000080230E042175307D1F3FA01E65FFD4FCC
:10071000808340930902E1ECF0E080818062808375
:100720000895CF93DF93EC018881882331F02196DF
:100730000E945F0389918111FBCFDF91CF910895D2
:100740001092C50080E18093C400E0ECF0E080816D
:1007500082608083089510924B0210924A02E1EC6D
:10076000F0E08081886180838081806880837894D4
:1007700008950E9491037894E1ECF0E0808180621A
:10078000808308950E94A0030E94AB0308951F92E6
:100790000F920FB60F9211242F933F934F935F93B5
:1007A0006F937F938F939F93AF93BF93EF93FF9339
:1007B000F89483B78E7F83BFE8988091C6008093BA
:1007C0000702E0ECF0E080818F7780838091070260
:1007D0000E947803E89A7894FF91EF91BF91AF91CE
:1007E0009F918F917F916F915F914F913F912F9149
:1007F0000F900FBE0F901F9018951F920F920FB67B
:100800000F9211248F939F93EF93FF9390914B023C
:1008100080914A02981779F080914A0290E00196FF
:100820008F73992780934A02FC01E45BFD4F80811E
:100830008093C60005C0E1ECF0E080818F7D80836D
:10084000FF91EF919F918F910F900FBE0F901F908E
:1008500018959C0140E050E060E472E48FE090E085
:100860000E946A0B1092800089E08093810030938F
:10087000890020938800EFE6F0E080818260808329
:10088000209A089510929202109291021092900272
:1008900081E080938F020895289810928F02089526
:1008A00080918F028111FCCF0895EF92FF920F93F8
:1008B0001F93CF93DF93082FF92E162F6E3408F075
:1008C000ADC00E9450042FEF3FEFA3E0A10F2A27F5
:1008D000022E2295207F2025032E322F22952F7065
:1008E0000226269532272327220F220F220F2025AA
:1008F000E1E0F1E0CA2FD0E0D595C795D595C79531
:10090000D595C795D595C795CB52DE4F8881808701
:10091000AF70B0E0AB52BE4F8C918187112309F4C8
:100920003BC0602FACE0B1E0E02FFF2D7F01419193
:100930002427022E2295207F2025032E322F229558
:100940002F700226269532272327220F220F220FEF
:100950002025CD01019750E0559547955595479530
:1009600055954795559547954B525E4FEA014881FD
:10097000EC014883E7018881C82FCF70D0E0CB52CB
:10098000DE4F88818C9312968E2F861B811708F478
:10099000CDCF1F5F110F01C012E020953095E12FE0
:1009A000F0E0E75FFE4FD901B295A295AF70AB279B
:1009B000BF70AB27AF70BB27AB52BE4F8C9180830B
:1009C000E1E0E10FF0E0E75FFE4FD901AF70BB2738
:1009D000AB52BE4F8C918083E2E0E10FF0E0E75F25
:1009E000FE4FD901AB2FBB27A295AF70AB52BE4FC4
:1009F0008C918083E3E0E10FF0E0E75FFE4FA32FEF
:100A0000BB27AF70BB27AB52BE4F8C918083145F66
:100A1000109393020E94420481E001C080E0DF91C4
:100A2000CF911F910F91FF90EF9008951F920F9219
:100A30000FB60F9211242F933F934F935F936F93B1
:100A40007F938F939F93AF93BF93EF93FF93809187
:100A50008F02882309F442C08091900291E0980FA0
:100A60009093900281113AC0E0919202809193029A
:100A7000E81760F00E944C0480918D0290918E02E4
:100A8000019690938E0280938D0228C0F0E0EF5F74
:100A9000FE4F40819091910281E0890F80939102F5
:100AA00021E030E0B90102C0660F771F9A95E2F7A6
:100AB000CB01842380938C0280918C02882311F0D7
:100AC000289A01C0289880919102863038F01092BF
:100AD0009102809192028F5F8093920280919002A6
:100AE000883010F010929002FF91EF91BF91AF917A
:100AF0009F918F917F916F915F914F913F912F9136
:100B00000F900FBE0F901F9018951F920F920FB667
:100B10000F9211242F933F938F939F93AF93BF9383
:100B20008091950290919602A0919702B0919802BF
:100B30003091940226E0230F2D3720F40296A11D58
:100B4000B11D05C029E8230F0396A11DB11D2093F7
:100B500094028093950290939602A0939702B0938B
:100B600098028091990290919A02A0919B02B09173
:100B70009C020196A11DB11D8093990290939A0247
:100B8000A0939B02B0939C02BF91AF919F918F91D4
:100B90003F912F910F900FBE0F901F9018953FB768
:100BA000F8948091990290919A02A0919B02B09141
:100BB0009C0226B5A89B02C02F3FC1F43FBFBA2FAD
:100BC000A92F982F8827820F911DA11DB11D880F75
:100BD000991FAA1FBB1F880F991FAA1FBB1FBC010B
:100BE000CD01660F771F881F991F08950196A11DDB
:100BF000B11DE4CFCF92DF92EF92FF92CF93DF93BC
:100C00006B017C010E94CF05EB01C114D104E1040A
:100C1000F10499F00E94CF056C1B7D0B683E734078
:100C200038F081E0C81AD108E108F108C851DC4F5A
:100C3000C114D104E104F10469F7DF91CF91FF9071
:100C4000EF90DF90CF900895789484B5836084BD51
:100C500085B5836085BDEEE6F0E0808181608083AC
:100C600008955058BB27AA270ED01CC10DD130F0D3
:100C700012D120F031F49F3F11F41EF402C10EF4A2
:100C8000E095E7FBF8C0E92F1ED180F3BA176207A1
:100C900073078407950718F071F49EF536C10EF4BA
:100CA000E0950B2EBA2FA02D0B01B90190010C017C
:100CB000CA01A0011124FF27591B99F0593F50F494
:100CC000503E68F11A16F040A22F232F342F4427EC
:100CD000585FF3CF469537952795A795F0405395E4
:100CE000C9F77EF41F16BA0B620B730B840BBAF0B4
:100CF0009150A1F0FF0FBB1F661F771F881FC2F71F
:100D00000EC0BA0F621F731F841F48F48795779532
:100D10006795B795F7959E3F08F0B3CF9395880FE9
:100D200008F09927EE0F9795879508950CD0BAC0D3
:100D3000B2D040F0A9D030F021F45F3F19F09BC051
:100D40005111E4C09EC0BFD098F39923C9F3552335
:100D5000B1F3951B550BBB27AA27621773078407AE
:100D600038F09F5F5F4F220F331F441FAA1FA9F364
:100D700033D00E2E3AF0E0E830D091505040E69556
:100D8000001CCAF729D0FE2F27D0660F771F881FB7
:100D9000BB1F261737074807AB07B0E809F0BB0BA6
:100DA000802DBF01FF2793585F4F2AF09E3F5105CA
:100DB00068F061C0ABC05F3FECF3983EDCF3869512
:100DC00077956795B795F7959F5FC9F7880F911D40
:100DD0009695879597F90895E1E0660F771F881F2C
:100DE000BB1F621773078407BA0720F0621B730BDF
:100DF000840BBA0BEE1F88F7E0950895E89409C0BC
:100E000097FB3EF490958095709561957F4F8F4F3D
:100E10009F4F9923A9F0F92F96E9BB279395F69553
:100E2000879577956795B795F111F8CFFAF4BB0FD1
:100E300011F460FF1BC06F5F7F4F8F4F9F4F16C035
:100E4000882311F096E911C0772321F09EE8872FBF
:100E5000762F05C0662371F096E8862F70E060E07B
:100E60002AF09A95660F771F881FDAF7880F9695F4
:100E7000879597F9089597F99F6780E870E060E09B
:100E800008959FEF80EC089500240A941616170623
:100E900018060906089500240A941216130614066B
:100EA00005060895092E0394000C11F4882352F0CE
:100EB000BB0F40F4BF2B11F460FF04C06F5F7F4F86
:100EC0008F4F9F4F089557FD9058440F551F59F06D
:100ED0005F3F71F04795880F97FB991F61F09F3F27
:100EE00079F087950895121613061406551FF2CF50
:100EF0004695F1DF08C0161617061806991FF1CFA0
:100F000086957105610508940895E894BB276627C6
:100F10007727CB0197F908950BD0C4CFB5DF28F020
:100F2000BADF18F0952309F0A6CFABCF1124EECF8E
:100F3000CADFA0F3959FD1F3950F50E0551F629F34
:100F4000F001729FBB27F00DB11D639FAA27F00D22
:100F5000B11DAA1F649F6627B00DA11D661F829F49
:100F60002227B00DA11D621F739FB00DA11D621F2E
:100F7000839FA00D611D221F749F3327A00D611D4B
:100F8000231F849F600D211D822F762F6A2F11242D
:100F90009F5750408AF0E1F088234AF0EE0FFF1F80
:100FA000BB1F661F771F881F91505040A9F79E3FB7
:100FB000510570F060CFAACF5F3FECF3983EDCF3B1
:100FC000869577956795B795F795E7959F5FC1F7F4
:100FD000FE2B880F911D9695879597F90895A3E1AB
:100FE000B0E0E5EFF7E00C948C0B7C011B016A018B
:100FF000FC0117821682838181FF66C3BE016F5F89
:101000007F4F4B01F7019381F10193FD859193FF90
:1010100081911F01882309F453C3853239F493FD6C
:10102000859193FF81911F01853239F4B70190E0DA
:101030000E94B10C56016501E5CF10E0512C20E073
:101040002032A0F48B3269F030F4803259F08332D0
:1010500069F420612CC08D3239F0803339F421607D
:1010600026C02260246023C0286021C027FD27C03D
:1010700030ED380F3A3078F426FF06C0FAE01F9FB3
:10108000300D1124132F13C06AE0569E300D112429
:10109000532E20620CC08E3221F426FD11C3206431
:1010A00006C08C3611F4206802C0883641F4F10184
:1010B00093FD859193FF81911F018111C1CF9BEB1E
:1010C000980F933018F42061805E06C09BE9980F5A
:1010D000933008F0AAC12F7E26FF16E02F73722EE0
:1010E000853621F4F22FF0647F2E08C0863621F475
:1010F000622F6068762E02C01111115077FE07C072
:101100001C3348F444244394410E27E00BC01830AC
:1011100030F4212F06C027E04CE3442E03C027E023
:1011200017E0412C560174E0A70EB11CF601608156
:10113000718182819381042DA4010E94C30B6C01F3
:10114000098100FF02C003FF06C071FC07C072FCEA
:1011500008C0612C08C03DE2632E05C02BE2622E60
:1011600002C090E2692E802F8C7099F1662011F0F8
:1011700084E001C083E0851510F0512C0BC0581A93
:1011800073FC08C0B70180E290E00E94B10C5A9451
:10119000C9F7F3CF662029F0B701862D90E00E94B1
:1011A000B10C03FD03C00CE610E002C008E610E03D
:1011B000F72DF0717F2EF8018491882309F476C20F
:1011C00071108052B70190E00E94B10C0F5F1F4F69
:1011D000F2CF77FE0FC04C0C04FF04C08A8181332C
:1011E00009F44A94141474F5F8E0F41578F588E0DD
:1011F000482E2CC076FC2AC0812F90E08C159D05CE
:101200009CF06CEFC6166FEFD60674F0772D706801
:10121000772E0AC0E2E0F0E0EC0FFD1FE10FF11DB8
:101220008081803319F411501111F4CF77FE0EC074
:1012300044244394410E812F90E0C816D9062CF423
:101240001C1904C04424439401C010E077FE07C079
:101250001C141D043CF496012F5F3F4F05C025E090
:1012600030E002C021E030E0662011F02F5F3F4FF8
:10127000112331F0412F50E04F5F5F4F240F351F96
:10128000452D50E02417350714F4521A01C0512C93
:10129000872D897049F4552039F0B70180E290E03C
:1012A0000E94B10C5A94F7CF662029F0B701862D21
:1012B00090E00E94B10C73FC09C0552039F0B701D1
:1012C00080E390E00E94B10C5A94F7CF77FE5FC0A4
:1012D0009C2D8D2DD7FE02C090E080E0692E782EE7
:1012E00040E050E0C601841991099D878C879601E2
:1012F00026193709280D391D812F90E0EE27FF2789
:10130000E81BF90BFF87EE87FFEF6F167F0669F486
:10131000B7018EE290E02B8B3A8B488B598B0E9461
:10132000B10C598948893A892B89C614D70454F0DD
:101330006C857D85661577052CF4F901E40FF51FA2
:10134000818101C080E371E0671A71084F5F5F4FD0
:10135000EE85FF856E167F066CF0B70190E02B8B53
:101360003A8B488B598B0E94B10C2B893A8948895A
:101370005989CACF6C147D0439F49A81963318F4D4
:10138000953311F404FF81E3B70190E04BC08A81EB
:10139000813309F00F7EB70190E00E94B10C11116A
:1013A00005C074FE18C085E490E017C0B7018EE256
:1013B00090E00E94B10C82E066246394680EF40110
:1013C000E80FF11D8081B70190E00E94B10C11502F
:1013D00041F3862DF1CF85E690E0B7010E94B10C74
:1013E000D7FC05C0C114D10439F404FF05C0D19461
:1013F000C194D1088DE201C08BE2B70190E00E9458
:10140000B10C80E36AE0C616D1042CF08F5FFAE0DD
:10141000CF1AD108F7CFB70190E00E94B10CB70105
:10142000C601C0960E94B10C41C1833631F08337AA
:1014300079F0833509F058C021C0560172E0A70E3B
:10144000B11CF6018081898301E010E0640114C0C1
:101450005601F2E0AF0EB11CF601C080D18026FF2C
:1014600003C0612F70E002C06FEF7FEFC6012B8BCE
:101470000E94A60C8C012B892F7715C05601F2E033
:10148000AF0EB11CF601C080D18026FF03C0612FD2
:1014900070E002C06FEF7FEFC6012B8B0E949B0CA8
:1014A0008C012B892068722E23FD1AC0852D90E0B7
:1014B00008171907A8F4B70180E290E00E94B10C68
:1014C0005A94F4CFF60177FC859177FE81916F01F4
:1014D000B70190E00E94B10C51105A9401501109CB
:1014E0000115110579F7E2C0843611F0893651F5FE
:1014F000560127FF09C0F4E0AF0EB11CF601608170
:101500007181828193810AC0F2E0AF0EB11CF601B5
:1015100060817181882777FD8095982F022F0F7643
:1015200097FF08C090958095709561957F4F8F4F7C
:101530009F4F00682AE030E0A4010E94050DC82EEC
:10154000C8183EC0022F853721F40F7E2AE030E014
:101550001DC0097F8F3691F018F4883559F0B0C05E
:10156000803719F0883711F0ABC0006104FF09C063
:10157000046007C024FF08C0066006C028E030E011
:1015800005C020E130E002C020E132E0560107FF53
:1015900009C0F4E0AF0EB11CF60160817181828157
:1015A000938108C0F2E0AF0EB11CF6016081718139
:1015B00080E090E0A4010E94050DC82EC8180F77A6
:1015C00006FF0BC0202F2E7FC11650F404FF0AC067
:1015D00002FD08C0202F2E7E05C0DC2C202F03C06A
:1015E000DC2C01C0D12E24FF0DC0FE01EC0DF11D3D
:1015F0008081803311F4297E09C022FF06C0D39474
:10160000D39404C0822F867809F0D39423FD13C0AD
:1016100020FF06C01C2DD51418F4150D1D19D52C4E
:10162000D51468F4B70180E290E02B8B0E94B10CD6
:10163000D3942B89F5CFD51410F45D1801C0512C2B
:1016400024FF12C0B70180E390E02B8B0E94B10C05
:101650002B8922FF17C021FF03C088E590E002C05C
:1016600088E790E0B7010CC0822F867859F021FD01
:1016700002C080E201C08BE227FD8DE2B70190E05D
:101680000E94B10CC11638F4B70180E390E00E94CB
:10169000B10C1150F7CFCA94F401EC0DF11D80810B
:1016A000B70190E00E94B10CC110F5CF552009F4AC
:1016B000C2CCB70180E290E00E94B10C5A94F6CF00
:1016C000F7018681978102C08FEF9FEF6396E2E179
:1016D0000C94A80BA1E21A2EAA1BBB1BFD010DC086
:1016E000AA1FBB1FEE1FFF1FA217B307E407F507D2
:1016F00020F0A21BB30BE40BF50B661F771F881FAE
:10170000991F1A9469F760957095809590959B0143
:10171000AC01BD01CF0108952F923F924F925F928D
:101720006F927F928F929F92AF92BF92CF92DF92F1
:10173000EF92FF920F931F93CF93DF93CDB7DEB756
:10174000CA1BDB0B0FB6F894DEBF0FBECDBF0994EA
:101750002A88398848885F846E847D848C849B8441
:10176000AA84B984C884DF80EE80FD800C811B814F
:10177000AA81B981CE0FD11D0FB6F894DEBF0FBE7E
:10178000CDBFED010895283008F027E03327DA01B6
:10179000990F311D87FD916000966105710539F43F
:1017A00032602E5F3D9330E32A95E1F708959F3F25
:1017B00030F080387105610509F03C5F3C5F3D9376
:1017C000913008F08068911DDF93CF931F930F93A2
:1017D000FF92EF92192F987F9695E92F96959695FF
:1017E000E90FFF27E653FF4F99273327EE24FF2405
:1017F000A701E70105900894079428F4360FE71E27
:10180000F81E491F511D660F771F881F991F0694E8
:10181000A1F70590079428F4E70EF81E491F561FFC
:10182000C11D770F881F991F661F0694A1F70590A9
:10183000079428F4F80E491F561FC71FD11D880FA3
:10184000991F661F771F0694A1F70590079420F44F
:10185000490F561FC71FD81F990F661F771F881F74
:101860000694A9F784911095177041F0D695C79505
:1018700057954795F794E7941A95C1F7E0E7F0E09C
:1018800068941590159135916591959105907FE239
:101890007395E118F10A430B560BC90BD009C0F739
:1018A000E10CF11E431F561FC91FD01D7EF470337B
:1018B00011F48A95E6CFE894015030F0080F0AF44D
:1018C0000027021708F4202F2395022F7A3328F0DF
:1018D00079E37D932A95E9F710C07D932A9589F6DF
:1018E000069497956795379517951794E118F10A1F
:1018F000430B560BC90BD00998F023957E91739535
:101900007A3308F070E37C932013B8F77E9170610E
:101910007D9330F0839571E37D9370E32A95E1F731
:101920001124EF90FF900F911F91CF91DF91992794
:1019300087FD90950895FC0105906150704001105D
:10194000D8F7809590958E0F9F1F0895FC016150E8
:10195000704001900110D8F7809590958E0F9F1FD1
:1019600008950F931F93CF93DF93182F092FEB0147
:101970008B8181FD03C08FEF9FEF20C082FF10C0DD
:101980004E815F812C813D81421753077CF4E881B1
:10199000F9819F012F5F3F4F39832883108306C051
:1019A000E885F985812F0995892B29F72E813F81BB
:1019B0002F5F3F4F3F832E83812F902FDF91CF9159
:1019C0001F910F910895AEE0B0E0E9EEFCE00C94B9
:1019D0009A0B0D891E8986E08C831A8309838FEF09
:1019E0009FE79E838D83AE01475E5F4F6F89788D41
:1019F000CE0101960E94EF07EF81F885E00FF11FFD
:101A000010822E96E4E00C94B60BFA01AA27283037
:101A100051F1203181F1E8946F936E7F6E5F7F4FBB
:101A20008F4F9F4FAF4FB1E03ED0B4E03CD0670F37
:101A3000781F891F9A1FA11D680F791F8A1F911D8A
:101A4000A11D6A0F711D811D911DA11D20D009F4DA
:101A500068943F912AE0269F11243019305D31931C
:101A6000DEF6CF010895462F4770405D4193B3E005
:101A70000FD0C9F7F6CF462F4F70405D4A3318F0AC
:101A8000495D31FD4052419302D0A9F7EACFB4E05D
:101A9000A6959795879577956795BA95C9F7009715
:101AA0006105710508959B01AC010A2E06945795B6
:101AB000479537952795BA95C9F7620F731F841F0D
:0A1AC000951FA01D0895F894FFCFB4
:101ACA00012A2A2A2A2A2A382C00000000000000AB
:101ADA0000000000000000000000000000000000FC
:101AEA0000000000000000000000000000000000EC
:101AFA0000000000000000000000000000000000DC
:101B0A0000000000000000000000000000000000CB
:101B1A0000000000000000000000000000000000BB
:101B2A0000000000000000000000000000000000AB
:101B3A00000000000000000000000000000000009B
:101B4A00000000000000000000000000000000008B
:101B5A00000000000000000000000000000000007B
:101B6A000000000000000000004D3A25640D0A0044
:101B7A00426F6F7420436F6D706C6574650D0A0057
:101B8A00463A252E32662C483A252E32662C4C3A95
:101B9A0025640D0A000D0E131516191A1C23252685
:061BAA00292A2C32340050
:00000001FF
